Component: ARM Compiler 5.06 update 6 (build 750) Tool: armlink [4d35ed]

==============================================================================

Section Cross References

    main.o(i.RCC_Configuration) refers (Special) to dadd.o(.text) for __aeabi_drsub
    main.o(i.RCC_Configuration) refers to stm32f10x_rcc.o(i.RCC_DeInit) for RCC_DeInit
    main.o(i.RCC_Configuration) refers to stm32f10x_rcc.o(i.RCC_HSEConfig) for RCC_HSEConfig
    main.o(i.RCC_Configuration) refers to stm32f10x_rcc.o(i.RCC_GetFlagStatus) for RCC_GetFlagStatus
    main.o(i.RCC_Configuration) refers to stm32f10x_flash.o(i.FLASH_PrefetchBufferCmd) for FLASH_PrefetchBufferCmd
    main.o(i.RCC_Configuration) refers to stm32f10x_flash.o(i.FLASH_SetLatency) for FLASH_SetLatency
    main.o(i.RCC_Configuration) refers to stm32f10x_rcc.o(i.RCC_HCLKConfig) for RCC_HCLKConfig
    main.o(i.RCC_Configuration) refers to stm32f10x_rcc.o(i.RCC_PCLK2Config) for RCC_PCLK2Config
    main.o(i.RCC_Configuration) refers to stm32f10x_rcc.o(i.RCC_PCLK1Config) for RCC_PCLK1Config
    main.o(i.RCC_Configuration) refers to stm32f10x_rcc.o(i.RCC_PLLConfig) for RCC_PLLConfig
    main.o(i.RCC_Configuration) refers to stm32f10x_rcc.o(i.RCC_PLLCmd) for RCC_PLLCmd
    main.o(i.RCC_Configuration) refers to stm32f10x_rcc.o(i.RCC_SYSCLKConfig) for RCC_SYSCLKConfig
    main.o(i.RCC_Configuration) refers to stm32f10x_rcc.o(i.RCC_GetSYSCLKSource) for RCC_GetSYSCLKSource
    main.o(i.RCC_Configuration) refers to stm32f10x_rcc.o(i.RCC_APB2PeriphClockCmd) for RCC_APB2PeriphClockCmd
    main.o(i.freq_init) refers (Special) to dadd.o(.text) for __aeabi_drsub
    main.o(i.freq_init) refers to stm32f10x_rcc.o(i.RCC_APB2PeriphClockCmd) for RCC_APB2PeriphClockCmd
    main.o(i.freq_init) refers to stm32f10x_gpio.o(i.GPIO_Init) for GPIO_Init
    main.o(i.freq_init) refers to stm32f10x_gpio.o(i.GPIO_SetBits) for GPIO_SetBits
==============================================================================

Removing Unused input sections from the image.

    Removing main.o(i.freq_init), (60 bytes).
    Removing main.o(.constdata), (10000 bytes).
    Removing system_stm32f10x.o(i.SystemCoreClockUpdate), (164 bytes).
    Removing sys.o(.emb_text), (6 bytes).
    Removing sys.o(i.INTX_DISABLE), (4 bytes).
    Removing sys.o(i.INTX_ENABLE), (4 bytes).
    Removing sys.o(i.WFI_SET), (4 bytes).
    Removing sys.o(.data), (8 bytes).
    Removing usart.o(i.USART1_Init), (184 bytes).
    Removing usart.o(i._sys_exit), (8 bytes).
    Removing core_cm3.o(.emb_text), (32 bytes).
    Removing startup_stm32f10x_hd.o(HEAP), (512 bytes).
    Removing misc.o(i.NVIC_SetVectorTable), (20 bytes).
    Removing misc.o(i.NVIC_SystemLPConfig), (32 bytes).
    Removing stm32f10x_adc.o(i.ADC_AnalogWatchdogCmd), (20 bytes).
    Removing stm32f10x_adc.o(i.ADC_AnalogWatchdogSingleChannelConfig), (16 bytes).
    Removing stm32f10x_adc.o(i.ADC_AnalogWatchdogThresholdsConfig), (6 bytes).
    Removing stm32f10x_adc.o(i.ADC_AutoInjectedConvCmd), (22 bytes).
==============================================================================

Image Symbol Table

    Local Symbols

    Symbol Name                              Value     Ov Type        Size  Object(Section)

    ../clib/microlib/division.c              0x00000000   Number         0  uidiv.o ABSOLUTE
    ../clib/microlib/division.c              0x00000000   Number         0  uldiv.o ABSOLUTE
    ../clib/microlib/init/entry.s            0x00000000   Number         0  entry10a.o ABSOLUTE
    ../clib/microlib/init/entry.s            0x00000000   Number         0  entry10b.o ABSOLUTE
    ../clib/microlib/init/entry.s            0x00000000   Number         0  entry11a.o ABSOLUTE
    ../clib/microlib/init/entry.s            0x00000000   Number         0  entry.o ABSOLUTE
    ../clib/microlib/init/entry.s            0x00000000   Number         0  entry8a.o ABSOLUTE
    ../clib/microlib/init/entry.s            0x00000000   Number         0  entry11b.o ABSOLUTE
    ../clib/microlib/init/entry.s            0x00000000   Number         0  entry7a.o ABSOLUTE
    ../clib/microlib/init/entry.s            0x00000000   Number         0  entry2.o ABSOLUTE
    ../clib/microlib/init/entry.s            0x00000000   Number         0  entry5.o ABSOLUTE
    ../clib/microlib/init/entry.s            0x00000000   Number         0  entry7b.o ABSOLUTE
    ../clib/microlib/init/entry.s            0x00000000   Number         0  entry8b.o ABSOLUTE
    ../clib/microlib/init/entry.s            0x00000000   Number         0  entry9a.o ABSOLUTE
    ../clib/microlib/init/entry.s            0x00000000   Number         0  entry9b.o ABSOLUTE
    ../clib/microlib/longlong.c              0x00000000   Number         0  llshl.o ABSOLUTE
    ../clib/microlib/longlong.c              0x00000000   Number         0  llsshr.o ABSOLUTE
    ../clib/microlib/longlong.c              0x00000000   Number         0  llushr.o ABSOLUTE
    ../clib/microlib/printf/printf.c         0x00000000   Number         0  printf5.o ABSOLUTE
    ../clib/microlib/printf/printf.c         0x00000000   Number         0  printfa.o ABSOLUTE
    ../clib/microlib/printf/printf.c         0x00000000   Number         0  printf8.o ABSOLUTE
    ../clib/microlib/printf/printf.c         0x00000000   Number         0  printf7.o ABSOLUTE
    ../clib/microlib/printf/printf.c         0x00000000   Number         0  printf6.o ABSOLUTE
    ../clib/microlib/printf/printf.c         0x00000000   Number         0  printf4.o ABSOLUTE
    ../clib/microlib/printf/printf.c         0x00000000   Number         0  printf3.o ABSOLUTE
    ../clib/microlib/printf/printf.c         0x00000000   Number         0  printf2.o ABSOLUTE
    ../clib/microlib/printf/printf.c         0x00000000   Number         0  printf1.o ABSOLUTE
    ../clib/microlib/printf/printf.c         0x00000000   Number         0  printf0.o ABSOLUTE
    ../clib/microlib/printf/printf.c         0x00000000   Number         0  printfb.o ABSOLUTE
    ../clib/microlib/printf/stubs.s          0x00000000   Number         0  stubs.o ABSOLUTE
    ../clib/microlib/stubs.s                 0x00000000   Number         0  iusefp.o ABSOLUTE
    ../clib/microlib/stubs.s                 0x00000000   Number         0  useno.o ABSOLUTE
    ../fplib/microlib/d2f.c                  0x00000000   Number         0  d2f.o ABSOLUTE
    ../fplib/microlib/f2d.c                  0x00000000   Number         0  f2d.o ABSOLUTE
    ../fplib/microlib/fpadd.c                0x00000000   Number         0  dadd.o ABSOLUTE
    ../fplib/microlib/fpadd.c                0x00000000   Number         0  fadd.o ABSOLUTE
    ../fplib/microlib/fpdiv.c                0x00000000   Number         0  fdiv.o ABSOLUTE
    ../fplib/microlib/fpdiv.c                0x00000000   Number         0  ddiv.o ABSOLUTE
    ../fplib/microlib/fpepilogue.c           0x00000000   Number         0  fepilogue.o ABSOLUTE
    ../fplib/microlib/fpepilogue.c           0x00000000   Number         0  depilogue.o ABSOLUTE
    ../fplib/microlib/fpfix.c                0x00000000   Number         0  dfixul.o ABSOLUTE
    ../fplib/microlib/fpfix.c                0x00000000   Number         0  dfixui.o ABSOLUTE
    ../fplib/microlib/fpfix.c                0x00000000   Number         0  dfixi.o ABSOLUTE
    ../fplib/microlib/fpfix.c                0x00000000   Number         0  ffixi.o ABSOLUTE
    ../fplib/microlib/fpflt.c                0x00000000   Number         0  fflti.o ABSOLUTE
    ../fplib/microlib/fpflt.c                0x00000000   Number         0  dfltui.o ABSOLUTE
    ../fplib/microlib/fpmul.c                0x00000000   Number         0  dmul.o ABSOLUTE
    ../fplib/microlib/fpmul.c                0x00000000   Number         0  fmul.o ABSOLUTE
    ..\CORE\STARTUP\startup_stm32f10x_hd.s   0x00000000   Number         0  startup_stm32f10x_hd.o ABSOLUTE
    ..\CORE\core_cm3.c                       0x00000000   Number         0  core_cm3.o ABSOLUTE
    ..\HARDWARE\LCD\LCD.c                    0x00000000   Number         0  lcd.o ABSOLUTE
    ..\HARDWARE\LED\led.c                    0x00000000   Number         0  led.o ABSOLUTE
    ..\HARDWARE\ads1115\ads1115.c            0x00000000   Number         0  ads1115.o ABSOLUTE
    ..\HARDWARE\ch224k\ch224k.c              0x00000000   Number         0  ch224k.o ABSOLUTE
    ..\HARDWARE\coder\coder.c                0x00000000   Number         0  coder.o ABSOLUTE
    ..\HARDWARE\myiic\myiic.c                0x00000000   Number         0  myiic.o ABSOLUTE
    ..\HARDWARE\pid\pid.c                    0x00000000   Number         0  pid.o ABSOLUTE
    ..\HARDWARE\shanwai\shanwai.c            0x00000000   Number         0  shanwai.o ABSOLUTE
    ..\HARDWARE\tim\tim.c                    0x00000000   Number         0  tim.o ABSOLUTE
    ..\STM32F10x_FWLib\src\misc.c            0x00000000   Number         0  misc.o ABSOLUTE
    ..\STM32F10x_FWLib\src\stm32f10x_adc.c   0x00000000   Number         0  stm32f10x_adc.o ABSOLUTE
    ..\STM32F10x_FWLib\src\stm32f10x_bkp.c   0x00000000   Number         0  stm32f10x_bkp.o ABSOLUTE
    ..\STM32F10x_FWLib\src\stm32f10x_can.c   0x00000000   Number         0  stm32f10x_can.o ABSOLUTE
    ..\STM32F10x_FWLib\src\stm32f10x_cec.c   0x00000000   Number         0  stm32f10x_cec.o ABSOLUTE
    ..\STM32F10x_FWLib\src\stm32f10x_crc.c   0x00000000   Number         0  stm32f10x_crc.o ABSOLUTE
    ..\STM32F10x_FWLib\src\stm32f10x_dac.c   0x00000000   Number         0  stm32f10x_dac.o ABSOLUTE
    ..\STM32F10x_FWLib\src\stm32f10x_dbgmcu.c 0x00000000   Number         0  stm32f10x_dbgmcu.o ABSOLUTE
    ..\STM32F10x_FWLib\src\stm32f10x_dma.c   0x00000000   Number         0  stm32f10x_dma.o ABSOLUTE
    ..\STM32F10x_FWLib\src\stm32f10x_exti.c  0x00000000   Number         0  stm32f10x_exti.o ABSOLUTE
    ..\STM32F10x_FWLib\src\stm32f10x_flash.c 0x00000000   Number         0  stm32f10x_flash.o ABSOLUTE
    ..\STM32F10x_FWLib\src\stm32f10x_fsmc.c  0x00000000   Number         0  stm32f10x_fsmc.o ABSOLUTE
    ..\STM32F10x_FWLib\src\stm32f10x_gpio.c  0x00000000   Number         0  stm32f10x_gpio.o ABSOLUTE
    ..\STM32F10x_FWLib\src\stm32f10x_i2c.c   0x00000000   Number         0  stm32f10x_i2c.o ABSOLUTE
    ..\STM32F10x_FWLib\src\stm32f10x_iwdg.c  0x00000000   Number         0  stm32f10x_iwdg.o ABSOLUTE
    ..\STM32F10x_FWLib\src\stm32f10x_pwr.c   0x00000000   Number         0  stm32f10x_pwr.o ABSOLUTE
    ..\STM32F10x_FWLib\src\stm32f10x_rcc.c   0x00000000   Number         0  stm32f10x_rcc.o ABSOLUTE
    ..\STM32F10x_FWLib\src\stm32f10x_rtc.c   0x00000000   Number         0  stm32f10x_rtc.o ABSOLUTE
    ..\STM32F10x_FWLib\src\stm32f10x_sdio.c  0x00000000   Number         0  stm32f10x_sdio.o ABSOLUTE
    ..\STM32F10x_FWLib\src\stm32f10x_spi.c   0x00000000   Number         0  stm32f10x_spi.o ABSOLUTE
    ..\STM32F10x_FWLib\src\stm32f10x_tim.c   0x00000000   Number         0  stm32f10x_tim.o ABSOLUTE
    ..\STM32F10x_FWLib\src\stm32f10x_usart.c 0x00000000   Number         0  stm32f10x_usart.o ABSOLUTE
    ..\STM32F10x_FWLib\src\stm32f10x_wwdg.c  0x00000000   Number         0  stm32f10x_wwdg.o ABSOLUTE
    ..\SYSTEM\delay\delay.c                  0x00000000   Number         0  delay.o ABSOLUTE
    ..\SYSTEM\sys\sys.c                      0x00000000   Number         0  sys.o ABSOLUTE
    ..\SYSTEM\uart\usart.c                   0x00000000   Number         0  usart.o ABSOLUTE
    ..\\CORE\\core_cm3.c                     0x00000000   Number         0  core_cm3.o ABSOLUTE
    ..\\SYSTEM\\sys\\sys.c                   0x00000000   Number         0  sys.o ABSOLUTE
    cdcmple.s                                0x00000000   Number         0  cdcmple.o ABSOLUTE
    cdrcmple.s                               0x00000000   Number         0  cdrcmple.o ABSOLUTE
    dc.s                                     0x00000000   Number         0  dc.o ABSOLUTE
    handlers.s                               0x00000000   Number         0  handlers.o ABSOLUTE
    init.s                                   0x00000000   Number         0  init.o ABSOLUTE
    main.c                                   0x00000000   Number         0  main.o ABSOLUTE
    stm32f10x_it.c                           0x00000000   Number         0  stm32f10x_it.o ABSOLUTE
    system_stm32f10x.c                       0x00000000   Number         0  system_stm32f10x.o ABSOLUTE
    RESET                                    0x08000000   Section      304  startup_stm32f10x_hd.o(RESET)
    .ARM.Collect$$$$00000000                 0x08000130   Section        0  entry.o(.ARM.Collect$$$$00000000)
    .ARM.Collect$$$$00000001                 0x08000130   Section        4  entry2.o(.ARM.Collect$$$$00000001)
    .ARM.Collect$$$$00000004                 0x08000134   Section        4  entry5.o(.ARM.Collect$$$$00000004)
    .ARM.Collect$$$$00000008                 0x08000138   Section        0  entry7b.o(.ARM.Collect$$$$00000008)
    .ARM.Collect$$$$0000000A                 0x08000138   Section        0  entry8b.o(.ARM.Collect$$$$0000000A)
    .ARM.Collect$$$$0000000B                 0x08000138   Section        8  entry9a.o(.ARM.Collect$$$$0000000B)
    .ARM.Collect$$$$0000000D                 0x08000140   Section        0  entry10a.o(.ARM.Collect$$$$0000000D)
    .ARM.Collect$$$$0000000F                 0x08000140   Section        0  entry11a.o(.ARM.Collect$$$$0000000F)
    .ARM.Collect$$$$00002712                 0x08000140   Section        4  entry2.o(.ARM.Collect$$$$00002712)
    __lit__00000000                          0x08000140   Data           4  entry2.o(.ARM.Collect$$$$00002712)
    .text                                    0x08000144   Section       36  startup_stm32f10x_hd.o(.text)
    .text                                    0x08000168   Section        0  llushr.o(.text)
    .text                                    0x08000188   Section        0  fadd.o(.text)
    .text                                    0x08000238   Section        0  fmul.o(.text)
    .text                                    0x0800029c   Section        0  dadd.o(.text)
    .text                                    0x080003ea   Section        0  dmul.o(.text)
    .text                                    0x080004ce   Section        0  fflti.o(.text)
    .text                                    0x080004e0   Section        0  dfltui.o(.text)
    .text                                    0x080004fa   Section        0  ffixi.o(.text)
    .text                                    0x0800052c   Section        0  dfixi.o(.text)
    .text                                    0x0800056a   Section        0  dfixui.o(.text)
    .text                                    0x0800059c   Section        0  f2d.o(.text)
    .text                                    0x080005c4   Section       48  cdcmple.o(.text)
    .text                                    0x080005f4   Section       48  cdrcmple.o(.text)
    .text                                    0x08000624   Section        0  d2f.o(.text)
    .text                                    0x0800065c   Section        0  uidiv.o(.text)
    .text                                    0x08000688   Section        0  uldiv.o(.text)
    .text                                    0x080006ea   Section        0  llshl.o(.text)
    .text                                    0x08000708   Section        0  llsshr.o(.text)
    .text                                    0x0800072c   Section        0  fepilogue.o(.text)
    .text                                    0x0800072c   Section        0  iusefp.o(.text)
    .text                                    0x0800079a   Section        0  depilogue.o(.text)
    .text                                    0x08000854   Section        0  ddiv.o(.text)
    .text                                    0x08000932   Section        0  dfixul.o(.text)
    .text                                    0x08000964   Section       36  init.o(.text)
    i.Address_set                            0x08000988   Section        0  lcd.o(i.Address_set)
    i.Ads1115_Init                           0x080009e4   Section        0  ads1115.o(i.Ads1115_Init)
    i.BusFault_Handler                       0x08000a6c   Section        0  stm32f10x_it.o(i.BusFault_Handler)
    i.Coder_Init                             0x08000a70   Section        0  coder.o(i.Coder_Init)
    i.DebugMon_Handler                       0x08000b24   Section        0  stm32f10x_it.o(i.DebugMon_Handler)
    i.EXTI4_IRQHandler                       0x08000b28   Section        0  ads1115.o(i.EXTI4_IRQHandler)
    i.EXTI_ClearITPendingBit                 0x08000be8   Section        0  stm32f10x_exti.o(i.EXTI_ClearITPendingBit)
    i.EXTI_GetITStatus                       0x08000bf4   Section        0  stm32f10x_exti.o(i.EXTI_GetITStatus)
    i.EXTI_Init                              0x08000c1c   Section        0  stm32f10x_exti.o(i.EXTI_Init)
    i.FLASH_PrefetchBufferCmd                0x08000cb0   Section        0  stm32f10x_flash.o(i.FLASH_PrefetchBufferCmd)
    i.FLASH_SetLatency                       0x08000ccc   Section        0  stm32f10x_flash.o(i.FLASH_SetLatency)
    i.GPIO_EXTILineConfig                    0x08000ce4   Section        0  stm32f10x_gpio.o(i.GPIO_EXTILineConfig)
    i.GPIO_Init                              0x08000d24   Section        0  stm32f10x_gpio.o(i.GPIO_Init)
    i.GPIO_ResetBits                         0x08000e3a   Section        0  stm32f10x_gpio.o(i.GPIO_ResetBits)
    i.GPIO_SetBits                           0x08000e3e   Section        0  stm32f10x_gpio.o(i.GPIO_SetBits)
    i.HardFault_Handler                      0x08000e42   Section        0  stm32f10x_it.o(i.HardFault_Handler)
    i.IIC_Ack                                0x08000e48   Section        0  myiic.o(i.IIC_Ack)
    i.IIC_Init                               0x08000e94   Section        0  myiic.o(i.IIC_Init)
    i.IIC_NAck                               0x08000edc   Section        0  myiic.o(i.IIC_NAck)
    i.IIC_Read_Byte                          0x08000f28   Section        0  myiic.o(i.IIC_Read_Byte)
    i.IIC_Send_Byte                          0x08000fa8   Section        0  myiic.o(i.IIC_Send_Byte)
    i.IIC_Start                              0x08001058   Section        0  myiic.o(i.IIC_Start)
    i.IIC_Stop                               0x080010a4   Section        0  myiic.o(i.IIC_Stop)
    i.LCD_Clear                              0x080010ec   Section        0  lcd.o(i.LCD_Clear)
    i.LCD_DrawLine_Color                     0x08001118   Section        0  lcd.o(i.LCD_DrawLine_Color)
    i.LCD_DrawPoint_Color                    0x080011be   Section        0  lcd.o(i.LCD_DrawPoint_Color)
    i.LCD_Show_Float                         0x080011dc   Section        0  lcd.o(i.LCD_Show_Float)
    i.LCD_Shows                              0x080012b8   Section        0  lcd.o(i.LCD_Shows)
    i.LCD_WR_DATA                            0x08001338   Section        0  lcd.o(i.LCD_WR_DATA)
    i.LCD_WR_DATA8                           0x0800135c   Section        0  lcd.o(i.LCD_WR_DATA8)
    i.LCD_WR_REG                             0x08001378   Section        0  lcd.o(i.LCD_WR_REG)
    i.LCD_Writ_Bus                           0x08001394   Section        0  lcd.o(i.LCD_Writ_Bus)
    i.Lcd_Init                               0x080013a8   Section        0  lcd.o(i.Lcd_Init)
    i.MemManage_Handler                      0x0800162c   Section        0  stm32f10x_it.o(i.MemManage_Handler)
    i.NMI_Handler                            0x08001630   Section        0  stm32f10x_it.o(i.NMI_Handler)
    i.NVIC_Init                              0x08001634   Section        0  misc.o(i.NVIC_Init)
    i.NVIC_PriorityGroupConfig               0x080016a4   Section        0  misc.o(i.NVIC_PriorityGroupConfig)
    i.PendSV_Handler                         0x080016b8   Section        0  stm32f10x_it.o(i.PendSV_Handler)
    i.Pid_Calculate                          0x080016bc   Section        0  pid.o(i.Pid_Calculate)
    i.Pid_Init                               0x080017ec   Section        0  pid.o(i.Pid_Init)
    i.Pid_Set                                0x08001820   Section        0  pid.o(i.Pid_Set)
    i.RCC_APB1PeriphClockCmd                 0x08001834   Section        0  stm32f10x_rcc.o(i.RCC_APB1PeriphClockCmd)
    i.RCC_APB1PeriphResetCmd                 0x08001854   Section        0  stm32f10x_rcc.o(i.RCC_APB1PeriphResetCmd)
    i.RCC_APB2PeriphClockCmd                 0x08001874   Section        0  stm32f10x_rcc.o(i.RCC_APB2PeriphClockCmd)
    i.RCC_APB2PeriphResetCmd                 0x08001894   Section        0  stm32f10x_rcc.o(i.RCC_APB2PeriphResetCmd)
    i.RCC_Configuration                      0x080018b4   Section        0  main.o(i.RCC_Configuration)
    i.RCC_DeInit                             0x08001928   Section        0  stm32f10x_rcc.o(i.RCC_DeInit)
    i.RCC_GetClocksFreq                      0x08001974   Section        0  stm32f10x_rcc.o(i.RCC_GetClocksFreq)
    i.RCC_GetFlagStatus                      0x08001a48   Section        0  stm32f10x_rcc.o(i.RCC_GetFlagStatus)
    i.RCC_GetSYSCLKSource                    0x08001a84   Section        0  stm32f10x_rcc.o(i.RCC_GetSYSCLKSource)
    i.RCC_HCLKConfig                         0x08001a94   Section        0  stm32f10x_rcc.o(i.RCC_HCLKConfig)
    i.RCC_HSEConfig                          0x08001aac   Section        0  stm32f10x_rcc.o(i.RCC_HSEConfig)
    i.RCC_PCLK1Config                        0x08001af8   Section        0  stm32f10x_rcc.o(i.RCC_PCLK1Config)
    i.RCC_PCLK2Config                        0x08001b10   Section        0  stm32f10x_rcc.o(i.RCC_PCLK2Config)
    i.RCC_PLLCmd                             0x08001b28   Section        0  stm32f10x_rcc.o(i.RCC_PLLCmd)
    i.RCC_PLLConfig                          0x08001b34   Section        0  stm32f10x_rcc.o(i.RCC_PLLConfig)
    i.RCC_SYSCLKConfig                       0x08001b50   Section        0  stm32f10x_rcc.o(i.RCC_SYSCLKConfig)
    i.SPI_Cmd                                0x08001b68   Section        0  stm32f10x_spi.o(i.SPI_Cmd)
    i.SPI_I2S_SendData                       0x08001b80   Section        0  stm32f10x_spi.o(i.SPI_I2S_SendData)
    i.SPI_Init                               0x08001b84   Section        0  stm32f10x_spi.o(i.SPI_Init)
    i.SVC_Handler                            0x08001bc0   Section        0  stm32f10x_it.o(i.SVC_Handler)
    i.SetSysClock                            0x08001bc2   Section        0  system_stm32f10x.o(i.SetSysClock)
    SetSysClock                              0x08001bc3   Thumb Code     8  system_stm32f10x.o(i.SetSysClock)
    i.SetSysClockTo72                        0x08001bcc   Section        0  system_stm32f10x.o(i.SetSysClockTo72)
    SetSysClockTo72                          0x08001bcd   Thumb Code   214  system_stm32f10x.o(i.SetSysClockTo72)
    i.Start_ADC_Differential_0_1             0x08001cac   Section        0  ads1115.o(i.Start_ADC_Differential_0_1)
    i.Start_ADC_Differential_2_3             0x08001cd8   Section        0  ads1115.o(i.Start_ADC_Differential_2_3)
    i.SysTick_CLKSourceConfig                0x08001d04   Section        0  misc.o(i.SysTick_CLKSourceConfig)
    i.SysTick_Handler                        0x08001d2c   Section        0  stm32f10x_it.o(i.SysTick_Handler)
    i.SystemInit                             0x08001d30   Section        0  system_stm32f10x.o(i.SystemInit)
    i.TIM3_IRQHandler                        0x08001d90   Section        0  tim.o(i.TIM3_IRQHandler)
    i.TIM4_IRQHandler                        0x08001dd4   Section        0  coder.o(i.TIM4_IRQHandler)
    i.TIM_ARRPreloadConfig                   0x080022a4   Section        0  stm32f10x_tim.o(i.TIM_ARRPreloadConfig)
    i.TIM_ClearITPendingBit                  0x080022bc   Section        0  stm32f10x_tim.o(i.TIM_ClearITPendingBit)
    i.TIM_Cmd                                0x080022c2   Section        0  stm32f10x_tim.o(i.TIM_Cmd)
    i.TIM_CtrlPWMOutputs                     0x080022da   Section        0  stm32f10x_tim.o(i.TIM_CtrlPWMOutputs)
    i.TIM_GetCapture4                        0x080022f8   Section        0  stm32f10x_tim.o(i.TIM_GetCapture4)
    i.TIM_GetITStatus                        0x08002300   Section        0  stm32f10x_tim.o(i.TIM_GetITStatus)
    i.TIM_ITConfig                           0x08002322   Section        0  stm32f10x_tim.o(i.TIM_ITConfig)
    i.TIM_OC4Init                            0x08002334   Section        0  stm32f10x_tim.o(i.TIM_OC4Init)
    i.TIM_OC4PreloadConfig                   0x080023b0   Section        0  stm32f10x_tim.o(i.TIM_OC4PreloadConfig)
    i.TIM_OCStructInit                       0x080023ca   Section        0  stm32f10x_tim.o(i.TIM_OCStructInit)
    i.TIM_SetCompare4                        0x080023de   Section        0  stm32f10x_tim.o(i.TIM_SetCompare4)
    i.TIM_TimeBaseInit                       0x080023e4   Section        0  stm32f10x_tim.o(i.TIM_TimeBaseInit)
    i.TIM_TimeBaseStructInit                 0x08002488   Section        0  stm32f10x_tim.o(i.TIM_TimeBaseStructInit)
    i.Tim_Init                               0x0800249c   Section        0  tim.o(i.Tim_Init)
    i.USART1_IRQHandler                      0x080025c4   Section        0  usart.o(i.USART1_IRQHandler)
    i.USART_ClearFlag                        0x08002608   Section        0  stm32f10x_usart.o(i.USART_ClearFlag)
    i.USART_Cmd                              0x0800261a   Section        0  stm32f10x_usart.o(i.USART_Cmd)
    i.USART_DeInit                           0x08002634   Section        0  stm32f10x_usart.o(i.USART_DeInit)
    i.USART_GetFlagStatus                    0x080026d0   Section        0  stm32f10x_usart.o(i.USART_GetFlagStatus)
    i.USART_GetITStatus                      0x080026ea   Section        0  stm32f10x_usart.o(i.USART_GetITStatus)
    i.USART_Init                             0x08002740   Section        0  stm32f10x_usart.o(i.USART_Init)
    i.USART_ReceiveData                      0x08002818   Section        0  stm32f10x_usart.o(i.USART_ReceiveData)
    i.USART_SendData                         0x08002822   Section        0  stm32f10x_usart.o(i.USART_SendData)
    i.UsageFault_Handler                     0x0800282a   Section        0  stm32f10x_it.o(i.UsageFault_Handler)
    i.__0printf                              0x08002830   Section        0  printfa.o(i.__0printf)
    i.__scatterload_copy                     0x08002850   Section       14  handlers.o(i.__scatterload_copy)
    i.__scatterload_null                     0x0800285e   Section        2  handlers.o(i.__scatterload_null)
    i.__scatterload_zeroinit                 0x08002860   Section       14  handlers.o(i.__scatterload_zeroinit)
    i._fp_digits                             0x08002870   Section        0  printfa.o(i._fp_digits)
    _fp_digits                               0x08002871   Thumb Code   366  printfa.o(i._fp_digits)
    i._printf_core                           0x080029f4   Section        0  printfa.o(i._printf_core)
    _printf_core                             0x080029f5   Thumb Code  1744  printfa.o(i._printf_core)
    i._printf_post_padding                   0x080030d0   Section        0  printfa.o(i._printf_post_padding)
    _printf_post_padding                     0x080030d1   Thumb Code    36  printfa.o(i._printf_post_padding)
    i._printf_pre_padding                    0x080030f4   Section        0  printfa.o(i._printf_pre_padding)
    _printf_pre_padding                      0x080030f5   Thumb Code    46  printfa.o(i._printf_pre_padding)
    i.delay_init                             0x08003124   Section        0  delay.o(i.delay_init)
    i.delay_ms                               0x08003168   Section        0  delay.o(i.delay_ms)
    i.delay_us                               0x080031b4   Section        0  delay.o(i.delay_us)
    i.fputc                                  0x08003200   Section        0  usart.o(i.fputc)
    i.getLastConversionResults               0x0800321c   Section        0  ads1115.o(i.getLastConversionResults)
    i.lcd_show_current                       0x08003228   Section        0  lcd.o(i.lcd_show_current)
    i.lcd_show_power                         0x08003390   Section        0  lcd.o(i.lcd_show_power)
    i.lcd_show_voltage                       0x080034fc   Section        0  lcd.o(i.lcd_show_voltage)
    i.led_show_char_imag                     0x08003664   Section        0  lcd.o(i.led_show_char_imag)
    i.main                                   0x0800390c   Section        0  main.o(i.main)
    i.readRegister                           0x08004310   Section        0  ads1115.o(i.readRegister)
    i.uart_init                              0x08004358   Section        0  usart.o(i.uart_init)
    i.writeRegister                          0x080043f4   Section        0  ads1115.o(i.writeRegister)
    .constdata                               0x0800441c   Section    33121  lcd.o(.constdata)
    .data                                    0x20000000   Section       14  main.o(.data)
    .data                                    0x20000010   Section       20  system_stm32f10x.o(.data)
    .data                                    0x20000024   Section        4  delay.o(.data)
    fac_us                                   0x20000024   Data           1  delay.o(.data)
    fac_ms                                   0x20000026   Data           2  delay.o(.data)
    .data                                    0x20000028   Section        4  usart.o(.data)
    .data                                    0x2000002c   Section       20  stm32f10x_rcc.o(.data)
    APBAHBPrescTable                         0x2000002c   Data          16  stm32f10x_rcc.o(.data)
    ADCPrescTable                            0x2000003c   Data           4  stm32f10x_rcc.o(.data)
    .data                                    0x20000040   Section       23  lcd.o(.data)
    last_num_temp                            0x20000048   Data           5  lcd.o(.data)
    last_num_temp                            0x2000004d   Data           5  lcd.o(.data)
    last_num_temp                            0x20000052   Data           5  lcd.o(.data)
    .data                                    0x20000058   Section       12  coder.o(.data)
    pahse_b_last_sta                         0x20000060   Data           1  coder.o(.data)
    index                                    0x20000061   Data           1  coder.o(.data)
    btn_index                                0x20000062   Data           1  coder.o(.data)
    push_change                              0x20000063   Data           1  coder.o(.data)
    .data                                    0x20000068   Section       56  pid.o(.data)
    error                                    0x20000068   Data           8  pid.o(.data)
    Pout                                     0x20000070   Data           8  pid.o(.data)
    integral                                 0x20000078   Data           8  pid.o(.data)
    Iout                                     0x20000080   Data           8  pid.o(.data)
    derivative                               0x20000088   Data           8  pid.o(.data)
    Dout                                     0x20000090   Data           8  pid.o(.data)
    output                                   0x20000098   Data           8  pid.o(.data)
    .data                                    0x200000a0   Section        6  ads1115.o(.data)
    .bss                                     0x200000a8   Section      224  main.o(.bss)
    .bss                                     0x20000188   Section     3136  lcd.o(.bss)
    imag_buff                                0x20000188   Data        3136  lcd.o(.bss)
    STACK                                    0x20000dc8   Section     1024  startup_stm32f10x_hd.o(STACK)

    Global Symbols

    Symbol Name                              Value     Ov Type        Size  Object(Section)

    BuildAttributes$$THM_ISAv4$P$D$K$B$S$PE$A:L22UL41UL21$X:L11$S22US41US21$IEEE1$IW$USESV6$~STKCKD$USESV7$~SHL$OTIME$ROPI$EBA8$MICROLIB$REQ8$PRES8$EABIv2 0x00000000   Number         0  anon$$obj.o ABSOLUTE
    __ARM_use_no_argv                        0x00000000   Number         0  main.o ABSOLUTE
    __use_no_errno                           0x00000000   Number         0  useno.o ABSOLUTE
    __use_no_exception_handling              0x00000000   Number         0  useno.o ABSOLUTE
    __use_no_fp                              0x00000000   Number         0  useno.o ABSOLUTE
    __use_no_heap                            0x00000000   Number         0  useno.o ABSOLUTE
    __use_no_heap_region                     0x00000000   Number         0  useno.o ABSOLUTE
    __use_no_semihosting                     0x00000000   Number         0  useno.o ABSOLUTE
    __use_no_semihosting_swi                 0x00000000   Number         0  useno.o ABSOLUTE
    __use_no_signal_handling                 0x00000000   Number         0  useno.o ABSOLUTE
    _printf_a                                0x00000000   Number         0  stubs.o ABSOLUTE
    _printf_c                                0x00000000   Number         0  stubs.o ABSOLUTE
    _printf_charcount                        0x00000000   Number         0  stubs.o ABSOLUTE
    _printf_d                                0x00000000   Number         0  stubs.o ABSOLUTE
    _printf_e                                0x00000000   Number         0  stubs.o ABSOLUTE
    _printf_f                                0x00000000   Number         0  stubs.o ABSOLUTE
    _printf_flags                            0x00000000   Number         0  stubs.o ABSOLUTE
    _printf_fp_dec                           0x00000000   Number         0  stubs.o ABSOLUTE
    _printf_fp_hex                           0x00000000   Number         0  stubs.o ABSOLUTE
    _printf_g                                0x00000000   Number         0  stubs.o ABSOLUTE
    _printf_i                                0x00000000   Number         0  stubs.o ABSOLUTE
    _printf_int_dec                          0x00000000   Number         0  stubs.o ABSOLUTE
    _printf_l                                0x00000000   Number         0  stubs.o ABSOLUTE
    _printf_lc                               0x00000000   Number         0  stubs.o ABSOLUTE
    _printf_ll                               0x00000000   Number         0  stubs.o ABSOLUTE
    _printf_lld                              0x00000000   Number         0  stubs.o ABSOLUTE
    _printf_lli                              0x00000000   Number         0  stubs.o ABSOLUTE
    _printf_llo                              0x00000000   Number         0  stubs.o ABSOLUTE
    _printf_llu                              0x00000000   Number         0  stubs.o ABSOLUTE
    _printf_llx                              0x00000000   Number         0  stubs.o ABSOLUTE
    _printf_longlong_dec                     0x00000000   Number         0  stubs.o ABSOLUTE
    _printf_longlong_hex                     0x00000000   Number         0  stubs.o ABSOLUTE
    _printf_longlong_oct                     0x00000000   Number         0  stubs.o ABSOLUTE
    _printf_ls                               0x00000000   Number         0  stubs.o ABSOLUTE
    _printf_mbtowc                           0x00000000   Number         0  stubs.o ABSOLUTE
    _printf_n                                0x00000000   Number         0  stubs.o ABSOLUTE
    _printf_o                                0x00000000   Number         0  stubs.o ABSOLUTE
    _printf_p                                0x00000000   Number         0  stubs.o ABSOLUTE
    _printf_percent                          0x00000000   Number         0  stubs.o ABSOLUTE
    _printf_pre_padding                      0x00000000   Number         0  stubs.o ABSOLUTE
    _printf_return_value                     0x00000000   Number         0  stubs.o ABSOLUTE
    _printf_s                                0x00000000   Number         0  stubs.o ABSOLUTE
    _printf_sizespec                         0x00000000   Number         0  stubs.o ABSOLUTE
    _printf_str                              0x00000000   Number         0  stubs.o ABSOLUTE
    _printf_truncate_signed                  0x00000000   Number         0  stubs.o ABSOLUTE
    _printf_truncate_unsigned                0x00000000   Number         0  stubs.o ABSOLUTE
    _printf_u                                0x00000000   Number         0  stubs.o ABSOLUTE
    _printf_wc                               0x00000000   Number         0  stubs.o ABSOLUTE
    _printf_wctomb                           0x00000000   Number         0  stubs.o ABSOLUTE
    _printf_widthprec                        0x00000000   Number         0  stubs.o ABSOLUTE
    _printf_x                                0x00000000   Number         0  stubs.o ABSOLUTE
    __cpp_initialize__aeabi_                  - Undefined Weak Reference
    __cxa_finalize                            - Undefined Weak Reference
    __decompress                              - Undefined Weak Reference
    _clock_init                               - Undefined Weak Reference
    _microlib_exit                            - Undefined Weak Reference
    __Vectors_Size                           0x00000130   Number         0  startup_stm32f10x_hd.o ABSOLUTE
    __Vectors                                0x08000000   Data           4  startup_stm32f10x_hd.o(RESET)
    __Vectors_End                            0x08000130   Data           0  startup_stm32f10x_hd.o(RESET)
    __main                                   0x08000131   Thumb Code     0  entry.o(.ARM.Collect$$$$00000000)
    _main_stk                                0x08000131   Thumb Code     0  entry2.o(.ARM.Collect$$$$00000001)
    _main_scatterload                        0x08000135   Thumb Code     0  entry5.o(.ARM.Collect$$$$00000004)
    __main_after_scatterload                 0x08000139   Thumb Code     0  entry5.o(.ARM.Collect$$$$00000004)
    _main_clock                              0x08000139   Thumb Code     0  entry7b.o(.ARM.Collect$$$$00000008)
    _main_cpp_init                           0x08000139   Thumb Code     0  entry8b.o(.ARM.Collect$$$$0000000A)
    _main_init                               0x08000139   Thumb Code     0  entry9a.o(.ARM.Collect$$$$0000000B)
    __rt_final_cpp                           0x08000141   Thumb Code     0  entry10a.o(.ARM.Collect$$$$0000000D)
    __rt_final_exit                          0x08000141   Thumb Code     0  entry11a.o(.ARM.Collect$$$$0000000F)
    Reset_Handler                            0x08000145   Thumb Code     8  startup_stm32f10x_hd.o(.text)
    ADC1_2_IRQHandler                        0x0800015f   Thumb Code     0  startup_stm32f10x_hd.o(.text)
    ADC3_IRQHandler                          0x0800015f   Thumb Code     0  startup_stm32f10x_hd.o(.text)
    CAN1_RX1_IRQHandler                      0x0800015f   Thumb Code     0  startup_stm32f10x_hd.o(.text)
    CAN1_SCE_IRQHandler                      0x0800015f   Thumb Code     0  startup_stm32f10x_hd.o(.text)
    DMA1_Channel1_IRQHandler                 0x0800015f   Thumb Code     0  startup_stm32f10x_hd.o(.text)
    DMA1_Channel2_IRQHandler                 0x0800015f   Thumb Code     0  startup_stm32f10x_hd.o(.text)
    DMA1_Channel3_IRQHandler                 0x0800015f   Thumb Code     0  startup_stm32f10x_hd.o(.text)
    DMA1_Channel4_IRQHandler                 0x0800015f   Thumb Code     0  startup_stm32f10x_hd.o(.text)
    DMA1_Channel5_IRQHandler                 0x0800015f   Thumb Code     0  startup_stm32f10x_hd.o(.text)
    DMA1_Channel6_IRQHandler                 0x0800015f   Thumb Code     0  startup_stm32f10x_hd.o(.text)
    DMA1_Channel7_IRQHandler                 0x0800015f   Thumb Code     0  startup_stm32f10x_hd.o(.text)
    DMA2_Channel1_IRQHandler                 0x0800015f   Thumb Code     0  startup_stm32f10x_hd.o(.text)
    DMA2_Channel2_IRQHandler                 0x0800015f   Thumb Code     0  startup_stm32f10x_hd.o(.text)
    DMA2_Channel3_IRQHandler                 0x0800015f   Thumb Code     0  startup_stm32f10x_hd.o(.text)
    DMA2_Channel4_5_IRQHandler               0x0800015f   Thumb Code     0  startup_stm32f10x_hd.o(.text)
    EXTI0_IRQHandler                         0x0800015f   Thumb Code     0  startup_stm32f10x_hd.o(.text)
    EXTI15_10_IRQHandler                     0x0800015f   Thumb Code     0  startup_stm32f10x_hd.o(.text)
    EXTI1_IRQHandler                         0x0800015f   Thumb Code     0  startup_stm32f10x_hd.o(.text)
    EXTI2_IRQHandler                         0x0800015f   Thumb Code     0  startup_stm32f10x_hd.o(.text)
    EXTI3_IRQHandler                         0x0800015f   Thumb Code     0  startup_stm32f10x_hd.o(.text)
    EXTI9_5_IRQHandler                       0x0800015f   Thumb Code     0  startup_stm32f10x_hd.o(.text)
    FLASH_IRQHandler                         0x0800015f   Thumb Code     0  startup_stm32f10x_hd.o(.text)
    FSMC_IRQHandler                          0x0800015f   Thumb Code     0  startup_stm32f10x_hd.o(.text)
    I2C1_ER_IRQHandler                       0x0800015f   Thumb Code     0  startup_stm32f10x_hd.o(.text)
    I2C1_EV_IRQHandler                       0x0800015f   Thumb Code     0  startup_stm32f10x_hd.o(.text)
    I2C2_ER_IRQHandler                       0x0800015f   Thumb Code     0  startup_stm32f10x_hd.o(.text)
    I2C2_EV_IRQHandler                       0x0800015f   Thumb Code     0  startup_stm32f10x_hd.o(.text)
    PVD_IRQHandler                           0x0800015f   Thumb Code     0  startup_stm32f10x_hd.o(.text)
    RCC_IRQHandler                           0x0800015f   Thumb Code     0  startup_stm32f10x_hd.o(.text)
    RTCAlarm_IRQHandler                      0x0800015f   Thumb Code     0  startup_stm32f10x_hd.o(.text)
    RTC_IRQHandler                           0x0800015f   Thumb Code     0  startup_stm32f10x_hd.o(.text)
    SDIO_IRQHandler                          0x0800015f   Thumb Code     0  startup_stm32f10x_hd.o(.text)
    SPI1_IRQHandler                          0x0800015f   Thumb Code     0  startup_stm32f10x_hd.o(.text)
    SPI2_IRQHandler                          0x0800015f   Thumb Code     0  startup_stm32f10x_hd.o(.text)
    SPI3_IRQHandler                          0x0800015f   Thumb Code     0  startup_stm32f10x_hd.o(.text)
    TAMPER_IRQHandler                        0x0800015f   Thumb Code     0  startup_stm32f10x_hd.o(.text)
    TIM1_BRK_IRQHandler                      0x0800015f   Thumb Code     0  startup_stm32f10x_hd.o(.text)
    TIM1_CC_IRQHandler                       0x0800015f   Thumb Code     0  startup_stm32f10x_hd.o(.text)
    TIM1_TRG_COM_IRQHandler                  0x0800015f   Thumb Code     0  startup_stm32f10x_hd.o(.text)
    TIM1_UP_IRQHandler                       0x0800015f   Thumb Code     0  startup_stm32f10x_hd.o(.text)
    TIM2_IRQHandler                          0x0800015f   Thumb Code     0  startup_stm32f10x_hd.o(.text)
    TIM5_IRQHandler                          0x0800015f   Thumb Code     0  startup_stm32f10x_hd.o(.text)
    TIM6_IRQHandler                          0x0800015f   Thumb Code     0  startup_stm32f10x_hd.o(.text)
    TIM7_IRQHandler                          0x0800015f   Thumb Code     0  startup_stm32f10x_hd.o(.text)
    TIM8_BRK_IRQHandler                      0x0800015f   Thumb Code     0  startup_stm32f10x_hd.o(.text)
    TIM8_CC_IRQHandler                       0x0800015f   Thumb Code     0  startup_stm32f10x_hd.o(.text)
    TIM8_TRG_COM_IRQHandler                  0x0800015f   Thumb Code     0  startup_stm32f10x_hd.o(.text)
    TIM8_UP_IRQHandler                       0x0800015f   Thumb Code     0  startup_stm32f10x_hd.o(.text)
    UART4_IRQHandler                         0x0800015f   Thumb Code     0  startup_stm32f10x_hd.o(.text)
    UART5_IRQHandler                         0x0800015f   Thumb Code     0  startup_stm32f10x_hd.o(.text)
    USART2_IRQHandler                        0x0800015f   Thumb Code     0  startup_stm32f10x_hd.o(.text)
    USART3_IRQHandler                        0x0800015f   Thumb Code     0  startup_stm32f10x_hd.o(.text)
    USBWakeUp_IRQHandler                     0x0800015f   Thumb Code     0  startup_stm32f10x_hd.o(.text)
    USB_HP_CAN1_TX_IRQHandler                0x0800015f   Thumb Code     0  startup_stm32f10x_hd.o(.text)
    USB_LP_CAN1_RX0_IRQHandler               0x0800015f   Thumb Code     0  startup_stm32f10x_hd.o(.text)
    WWDG_IRQHandler                          0x0800015f   Thumb Code     0  startup_stm32f10x_hd.o(.text)
    __aeabi_llsr                             0x08000169   Thumb Code    32  llushr.o(.text)
    _ll_ushift_r                             0x08000169   Thumb Code     0  llushr.o(.text)
    __aeabi_fadd                             0x08000189   Thumb Code   164  fadd.o(.text)
    __aeabi_fsub                             0x0800022d   Thumb Code     6  fadd.o(.text)
    __aeabi_frsub                            0x08000233   Thumb Code     6  fadd.o(.text)
    __aeabi_fmul                             0x08000239   Thumb Code   100  fmul.o(.text)
    __aeabi_dadd                             0x0800029d   Thumb Code   322  dadd.o(.text)
    __aeabi_dsub                             0x080003df   Thumb Code     6  dadd.o(.text)
    __aeabi_drsub                            0x080003e5   Thumb Code     6  dadd.o(.text)
    __aeabi_dmul                             0x080003eb   Thumb Code   228  dmul.o(.text)
    __aeabi_i2f                              0x080004cf   Thumb Code    18  fflti.o(.text)
    __aeabi_ui2d                             0x080004e1   Thumb Code    26  dfltui.o(.text)
    __aeabi_f2iz                             0x080004fb   Thumb Code    50  ffixi.o(.text)
    __aeabi_d2iz                             0x0800052d   Thumb Code    62  dfixi.o(.text)
    __aeabi_d2uiz                            0x0800056b   Thumb Code    50  dfixui.o(.text)
    __aeabi_f2d                              0x0800059d   Thumb Code    38  f2d.o(.text)
    __aeabi_cdcmpeq                          0x080005c5   Thumb Code     0  cdcmple.o(.text)
    __aeabi_cdcmple                          0x080005c5   Thumb Code    48  cdcmple.o(.text)
    __aeabi_cdrcmple                         0x080005f5   Thumb Code    48  cdrcmple.o(.text)
    __aeabi_d2f                              0x08000625   Thumb Code    56  d2f.o(.text)
    __aeabi_uidiv                            0x0800065d   Thumb Code     0  uidiv.o(.text)
    __aeabi_uidivmod                         0x0800065d   Thumb Code    44  uidiv.o(.text)
    __aeabi_uldivmod                         0x08000689   Thumb Code    98  uldiv.o(.text)
    __aeabi_llsl                             0x080006eb   Thumb Code    30  llshl.o(.text)
    _ll_shift_l                              0x080006eb   Thumb Code     0  llshl.o(.text)
    __aeabi_lasr                             0x08000709   Thumb Code    36  llsshr.o(.text)
    _ll_sshift_r                             0x08000709   Thumb Code     0  llsshr.o(.text)
    __I$use$fp                               0x0800072d   Thumb Code     0  iusefp.o(.text)
    _float_round                             0x0800072d   Thumb Code    18  fepilogue.o(.text)
    _float_epilogue                          0x0800073f   Thumb Code    92  fepilogue.o(.text)
    _double_round                            0x0800079b   Thumb Code    30  depilogue.o(.text)
    _double_epilogue                         0x080007b9   Thumb Code   156  depilogue.o(.text)
    __aeabi_ddiv                             0x08000855   Thumb Code   222  ddiv.o(.text)
    __aeabi_d2ulz                            0x08000933   Thumb Code    48  dfixul.o(.text)
    __scatterload                            0x08000965   Thumb Code    28  init.o(.text)
    __scatterload_rt2                        0x08000965   Thumb Code     0  init.o(.text)
    Address_set                              0x08000989   Thumb Code    90  lcd.o(i.Address_set)
    Ads1115_Init                             0x080009e5   Thumb Code   132  ads1115.o(i.Ads1115_Init)
    BusFault_Handler                         0x08000a6d   Thumb Code     4  stm32f10x_it.o(i.BusFault_Handler)
    Coder_Init                               0x08000a71   Thumb Code   170  coder.o(i.Coder_Init)
    DebugMon_Handler                         0x08000b25   Thumb Code     2  stm32f10x_it.o(i.DebugMon_Handler)
    EXTI4_IRQHandler                         0x08000b29   Thumb Code   172  ads1115.o(i.EXTI4_IRQHandler)
    EXTI_ClearITPendingBit                   0x08000be9   Thumb Code     6  stm32f10x_exti.o(i.EXTI_ClearITPendingBit)
    EXTI_GetITStatus                         0x08000bf5   Thumb Code    34  stm32f10x_exti.o(i.EXTI_GetITStatus)
    EXTI_Init                                0x08000c1d   Thumb Code   142  stm32f10x_exti.o(i.EXTI_Init)
    FLASH_PrefetchBufferCmd                  0x08000cb1   Thumb Code    22  stm32f10x_flash.o(i.FLASH_PrefetchBufferCmd)
    FLASH_SetLatency                         0x08000ccd   Thumb Code    18  stm32f10x_flash.o(i.FLASH_SetLatency)
    GPIO_EXTILineConfig                      0x08000ce5   Thumb Code    60  stm32f10x_gpio.o(i.GPIO_EXTILineConfig)
    GPIO_Init                                0x08000d25   Thumb Code   278  stm32f10x_gpio.o(i.GPIO_Init)
    GPIO_ResetBits                           0x08000e3b   Thumb Code     4  stm32f10x_gpio.o(i.GPIO_ResetBits)
    GPIO_SetBits                             0x08000e3f   Thumb Code     4  stm32f10x_gpio.o(i.GPIO_SetBits)
    HardFault_Handler                        0x08000e43   Thumb Code     4  stm32f10x_it.o(i.HardFault_Handler)
    IIC_Ack                                  0x08000e49   Thumb Code    64  myiic.o(i.IIC_Ack)
    IIC_Init                                 0x08000e95   Thumb Code    60  myiic.o(i.IIC_Init)
    IIC_NAck                                 0x08000edd   Thumb Code    62  myiic.o(i.IIC_NAck)
    IIC_Read_Byte                            0x08000f29   Thumb Code   114  myiic.o(i.IIC_Read_Byte)
    IIC_Send_Byte                            0x08000fa9   Thumb Code   164  myiic.o(i.IIC_Send_Byte)
    IIC_Start                                0x08001059   Thumb Code    62  myiic.o(i.IIC_Start)
    IIC_Stop                                 0x080010a5   Thumb Code    60  myiic.o(i.IIC_Stop)
    LCD_Clear                                0x080010ed   Thumb Code    44  lcd.o(i.LCD_Clear)
    LCD_DrawLine_Color                       0x08001119   Thumb Code   166  lcd.o(i.LCD_DrawLine_Color)
    LCD_DrawPoint_Color                      0x080011bf   Thumb Code    28  lcd.o(i.LCD_DrawPoint_Color)
    LCD_Show_Float                           0x080011dd   Thumb Code   208  lcd.o(i.LCD_Show_Float)
    LCD_Shows                                0x080012b9   Thumb Code   126  lcd.o(i.LCD_Shows)
    LCD_WR_DATA                              0x08001339   Thumb Code    30  lcd.o(i.LCD_WR_DATA)
    LCD_WR_DATA8                             0x0800135d   Thumb Code    22  lcd.o(i.LCD_WR_DATA8)
    LCD_WR_REG                               0x08001379   Thumb Code    22  lcd.o(i.LCD_WR_REG)
    LCD_Writ_Bus                             0x08001395   Thumb Code    14  lcd.o(i.LCD_Writ_Bus)
    Lcd_Init                                 0x080013a9   Thumb Code   632  lcd.o(i.Lcd_Init)
    MemManage_Handler                        0x0800162d   Thumb Code     4  stm32f10x_it.o(i.MemManage_Handler)
    NMI_Handler                              0x08001631   Thumb Code     2  stm32f10x_it.o(i.NMI_Handler)
    NVIC_Init                                0x08001635   Thumb Code   100  misc.o(i.NVIC_Init)
    NVIC_PriorityGroupConfig                 0x080016a5   Thumb Code    10  misc.o(i.NVIC_PriorityGroupConfig)
    PendSV_Handler                           0x080016b9   Thumb Code     2  stm32f10x_it.o(i.PendSV_Handler)
    Pid_Calculate                            0x080016bd   Thumb Code   264  pid.o(i.Pid_Calculate)
    Pid_Init                                 0x080017ed   Thumb Code    42  pid.o(i.Pid_Init)
    Pid_Set                                  0x08001821   Thumb Code    20  pid.o(i.Pid_Set)
    RCC_APB1PeriphClockCmd                   0x08001835   Thumb Code    26  stm32f10x_rcc.o(i.RCC_APB1PeriphClockCmd)
    RCC_APB1PeriphResetCmd                   0x08001855   Thumb Code    26  stm32f10x_rcc.o(i.RCC_APB1PeriphResetCmd)
    RCC_APB2PeriphClockCmd                   0x08001875   Thumb Code    26  stm32f10x_rcc.o(i.RCC_APB2PeriphClockCmd)
    RCC_APB2PeriphResetCmd                   0x08001895   Thumb Code    26  stm32f10x_rcc.o(i.RCC_APB2PeriphResetCmd)
    RCC_Configuration                        0x080018b5   Thumb Code   114  main.o(i.RCC_Configuration)
    RCC_DeInit                               0x08001929   Thumb Code    64  stm32f10x_rcc.o(i.RCC_DeInit)
    RCC_GetClocksFreq                        0x08001975   Thumb Code   192  stm32f10x_rcc.o(i.RCC_GetClocksFreq)
    RCC_GetFlagStatus                        0x08001a49   Thumb Code    56  stm32f10x_rcc.o(i.RCC_GetFlagStatus)
    RCC_GetSYSCLKSource                      0x08001a85   Thumb Code    10  stm32f10x_rcc.o(i.RCC_GetSYSCLKSource)
    RCC_HCLKConfig                           0x08001a95   Thumb Code    18  stm32f10x_rcc.o(i.RCC_HCLKConfig)
    RCC_HSEConfig                            0x08001aad   Thumb Code    70  stm32f10x_rcc.o(i.RCC_HSEConfig)
    RCC_PCLK1Config                          0x08001af9   Thumb Code    18  stm32f10x_rcc.o(i.RCC_PCLK1Config)
    RCC_PCLK2Config                          0x08001b11   Thumb Code    20  stm32f10x_rcc.o(i.RCC_PCLK2Config)
    RCC_PLLCmd                               0x08001b29   Thumb Code     6  stm32f10x_rcc.o(i.RCC_PLLCmd)
    RCC_PLLConfig                            0x08001b35   Thumb Code    24  stm32f10x_rcc.o(i.RCC_PLLConfig)
    RCC_SYSCLKConfig                         0x08001b51   Thumb Code    18  stm32f10x_rcc.o(i.RCC_SYSCLKConfig)
    SPI_Cmd                                  0x08001b69   Thumb Code    24  stm32f10x_spi.o(i.SPI_Cmd)
    SPI_I2S_SendData                         0x08001b81   Thumb Code     4  stm32f10x_spi.o(i.SPI_I2S_SendData)
    SPI_Init                                 0x08001b85   Thumb Code    60  stm32f10x_spi.o(i.SPI_Init)
    SVC_Handler                              0x08001bc1   Thumb Code     2  stm32f10x_it.o(i.SVC_Handler)
    Start_ADC_Differential_0_1               0x08001cad   Thumb Code    34  ads1115.o(i.Start_ADC_Differential_0_1)
    Start_ADC_Differential_2_3               0x08001cd9   Thumb Code    36  ads1115.o(i.Start_ADC_Differential_2_3)
    SysTick_CLKSourceConfig                  0x08001d05   Thumb Code    40  misc.o(i.SysTick_CLKSourceConfig)
    SysTick_Handler                          0x08001d2d   Thumb Code     2  stm32f10x_it.o(i.SysTick_Handler)
    SystemInit                               0x08001d31   Thumb Code    78  system_stm32f10x.o(i.SystemInit)
    TIM3_IRQHandler                          0x08001d91   Thumb Code    56  tim.o(i.TIM3_IRQHandler)
    TIM4_IRQHandler                          0x08001dd5   Thumb Code  1220  coder.o(i.TIM4_IRQHandler)
    TIM_ARRPreloadConfig                     0x080022a5   Thumb Code    24  stm32f10x_tim.o(i.TIM_ARRPreloadConfig)
    TIM_ClearITPendingBit                    0x080022bd   Thumb Code     6  stm32f10x_tim.o(i.TIM_ClearITPendingBit)
    TIM_Cmd                                  0x080022c3   Thumb Code    24  stm32f10x_tim.o(i.TIM_Cmd)
    TIM_CtrlPWMOutputs                       0x080022db   Thumb Code    30  stm32f10x_tim.o(i.TIM_CtrlPWMOutputs)
    TIM_GetCapture4                          0x080022f9   Thumb Code     8  stm32f10x_tim.o(i.TIM_GetCapture4)
    TIM_GetITStatus                          0x08002301   Thumb Code    34  stm32f10x_tim.o(i.TIM_GetITStatus)
    TIM_ITConfig                             0x08002323   Thumb Code    18  stm32f10x_tim.o(i.TIM_ITConfig)
    TIM_OC4Init                              0x08002335   Thumb Code   114  stm32f10x_tim.o(i.TIM_OC4Init)
    TIM_OC4PreloadConfig                     0x080023b1   Thumb Code    26  stm32f10x_tim.o(i.TIM_OC4PreloadConfig)
    TIM_OCStructInit                         0x080023cb   Thumb Code    20  stm32f10x_tim.o(i.TIM_OCStructInit)
    TIM_SetCompare4                          0x080023df   Thumb Code     6  stm32f10x_tim.o(i.TIM_SetCompare4)
    TIM_TimeBaseInit                         0x080023e5   Thumb Code   122  stm32f10x_tim.o(i.TIM_TimeBaseInit)
    TIM_TimeBaseStructInit                   0x08002489   Thumb Code    18  stm32f10x_tim.o(i.TIM_TimeBaseStructInit)
    Tim_Init                                 0x0800249d   Thumb Code   284  tim.o(i.Tim_Init)
    USART1_IRQHandler                        0x080025c5   Thumb Code    62  usart.o(i.USART1_IRQHandler)
    USART_ClearFlag                          0x08002609   Thumb Code    18  stm32f10x_usart.o(i.USART_ClearFlag)
    USART_Cmd                                0x0800261b   Thumb Code    24  stm32f10x_usart.o(i.USART_Cmd)
    USART_DeInit                             0x08002635   Thumb Code   134  stm32f10x_usart.o(i.USART_DeInit)
    USART_GetFlagStatus                      0x080026d1   Thumb Code    26  stm32f10x_usart.o(i.USART_GetFlagStatus)
    USART_GetITStatus                        0x080026eb   Thumb Code    84  stm32f10x_usart.o(i.USART_GetITStatus)
    USART_Init                               0x08002741   Thumb Code   210  stm32f10x_usart.o(i.USART_Init)
    USART_ReceiveData                        0x08002819   Thumb Code    10  stm32f10x_usart.o(i.USART_ReceiveData)
    USART_SendData                           0x08002823   Thumb Code     8  stm32f10x_usart.o(i.USART_SendData)
    UsageFault_Handler                       0x0800282b   Thumb Code     4  stm32f10x_it.o(i.UsageFault_Handler)
    __0printf                                0x08002831   Thumb Code    22  printfa.o(i.__0printf)
    __1printf                                0x08002831   Thumb Code     0  printfa.o(i.__0printf)
    __2printf                                0x08002831   Thumb Code     0  printfa.o(i.__0printf)
    __c89printf                              0x08002831   Thumb Code     0  printfa.o(i.__0printf)
    printf                                   0x08002831   Thumb Code     0  printfa.o(i.__0printf)
    __scatterload_copy                       0x08002851   Thumb Code    14  handlers.o(i.__scatterload_copy)
    __scatterload_null                       0x0800285f   Thumb Code     2  handlers.o(i.__scatterload_null)
    __scatterload_zeroinit                   0x08002861   Thumb Code    14  handlers.o(i.__scatterload_zeroinit)
    delay_init                               0x08003125   Thumb Code    50  delay.o(i.delay_init)
    delay_ms                                 0x08003169   Thumb Code    72  delay.o(i.delay_ms)
    delay_us                                 0x080031b5   Thumb Code    72  delay.o(i.delay_us)
    fputc                                    0x08003201   Thumb Code    24  usart.o(i.fputc)
    getLastConversionResults                 0x0800321d   Thumb Code    12  ads1115.o(i.getLastConversionResults)
    lcd_show_current                         0x08003229   Thumb Code   340  lcd.o(i.lcd_show_current)
    lcd_show_power                           0x08003391   Thumb Code   338  lcd.o(i.lcd_show_power)
    lcd_show_voltage                         0x080034fd   Thumb Code   340  lcd.o(i.lcd_show_voltage)
    led_show_char_imag                       0x08003665   Thumb Code   658  lcd.o(i.led_show_char_imag)
    main                                     0x0800390d   Thumb Code  2552  main.o(i.main)
    readRegister                             0x08004311   Thumb Code    72  ads1115.o(i.readRegister)
    uart_init                                0x08004359   Thumb Code   146  usart.o(i.uart_init)
    writeRegister                            0x080043f5   Thumb Code    40  ads1115.o(i.writeRegister)
    asc16                                    0x0800441c   Data           1  lcd.o(.constdata)
    songti_2412_en                           0x0800441d   Data        3312  lcd.o(.constdata)
    songti_3216_en                           0x0800510d   Data        4416  lcd.o(.constdata)
    songti_4824_en                           0x0800624d   Data        9936  lcd.o(.constdata)
    songti_5628_en                           0x0800891d   Data       15456  lcd.o(.constdata)
    Region$$Table$$Base                      0x0800c580   Number         0  anon$$obj.o(Region$$Table)
    Region$$Table$$Limit                     0x0800c5a0   Number         0  anon$$obj.o(Region$$Table)
    Menu_Page                                0x20000000   Data           1  main.o(.data)
    Home_Page_Settings                       0x20000001   Data           1  main.o(.data)
    test_val0                                0x20000002   Data           2  main.o(.data)
    test_val1                                0x20000004   Data           2  main.o(.data)
    test_val2                                0x20000006   Data           2  main.o(.data)
    test_val3                                0x20000008   Data           2  main.o(.data)
    test_val0_1                              0x2000000a   Data           2  main.o(.data)
    test_val2_3                              0x2000000c   Data           2  main.o(.data)
    SystemCoreClock                          0x20000010   Data           4  system_stm32f10x.o(.data)
    AHBPrescTable                            0x20000014   Data          16  system_stm32f10x.o(.data)
    __stdout                                 0x20000028   Data           4  usart.o(.data)
    BACK_COLOR                               0x20000040   Data           4  lcd.o(.data)
    POINT_COLOR                              0x20000044   Data           4  lcd.o(.data)
    btn_push                                 0x20000058   Data           1  coder.o(.data)
    btn_tick                                 0x2000005c   Data           4  coder.o(.data)
    m_bitShift                               0x200000a0   Data           1  ads1115.o(.data)
    m_gain                                   0x200000a2   Data           2  ads1115.o(.data)
    m_dataRate                               0x200000a4   Data           2  ads1115.o(.data)
    sys_info                                 0x200000a8   Data         224  main.o(.bss)
    __initial_sp                             0x200011c8   Data           0  startup_stm32f10x_hd.o(STACK)



==============================================================================

Memory Map of the image

  Image Entry point : 0x08000145

  Load Region LR_1 (Base: 0x08000000, Size: 0x0000c648, Max: 0xffffffff, ABSOLUTE)

    Execution Region ER_RO (Exec base: 0x08000000, Load base: 0x08000000, Size: 0x0000c5a0, Max: 0xffffffff, ABSOLUTE)

    Exec Addr    Load Addr    Size         Type   Attr      Idx    E Section Name        Object

    0x08000000   0x08000000   0x00000130   Data   RO          504    RESET               startup_stm32f10x_hd.o
    0x08000130   0x08000130   0x00000000   Code   RO         4101  * .ARM.Collect$$$$00000000  mc_w.l(entry.o)
    0x08000130   0x08000130   0x00000004   Code   RO         4395    .ARM.Collect$$$$00000001  mc_w.l(entry2.o)
    0x08000134   0x08000134   0x00000004   Code   RO         4398    .ARM.Collect$$$$00000004  mc_w.l(entry5.o)
    0x08000138   0x08000138   0x00000000   Code   RO         4400    .ARM.Collect$$$$00000008  mc_w.l(entry7b.o)
    0x08000138   0x08000138   0x00000000   Code   RO         4402    .ARM.Collect$$$$0000000A  mc_w.l(entry8b.o)
    0x08000138   0x08000138   0x00000008   Code   RO         4403    .ARM.Collect$$$$0000000B  mc_w.l(entry9a.o)
    0x08000140   0x08000140   0x00000000   Code   RO         4405    .ARM.Collect$$$$0000000D  mc_w.l(entry10a.o)
    0x08000140   0x08000140   0x00000000   Code   RO         4407    .ARM.Collect$$$$0000000F  mc_w.l(entry11a.o)
    0x08000140   0x08000140   0x00000004   Code   RO         4396    .ARM.Collect$$$$00002712  mc_w.l(entry2.o)
    0x08000144   0x08000144   0x00000024   Code   RO          505  * .text               startup_stm32f10x_hd.o
    0x08000168   0x08000168   0x00000020   Code   RO         4104    .text               mc_w.l(llushr.o)
    0x08000188   0x08000188   0x000000b0   Code   RO         4367    .text               mf_w.l(fadd.o)
    0x08000238   0x08000238   0x00000064   Code   RO         4369    .text               mf_w.l(fmul.o)
    0x0800029c   0x0800029c   0x0000014e   Code   RO         4373    .text               mf_w.l(dadd.o)
    0x080003ea   0x080003ea   0x000000e4   Code   RO         4375    .text               mf_w.l(dmul.o)
    0x080004ce   0x080004ce   0x00000012   Code   RO         4377    .text               mf_w.l(fflti.o)
    0x080004e0   0x080004e0   0x0000001a   Code   RO         4379    .text               mf_w.l(dfltui.o)
    0x080004fa   0x080004fa   0x00000032   Code   RO         4381    .text               mf_w.l(ffixi.o)
    0x0800052c   0x0800052c   0x0000003e   Code   RO         4383    .text               mf_w.l(dfixi.o)
    0x0800056a   0x0800056a   0x00000032   Code   RO         4385    .text               mf_w.l(dfixui.o)
    0x0800059c   0x0800059c   0x00000026   Code   RO         4387    .text               mf_w.l(f2d.o)
    0x080005c2   0x080005c2   0x00000002   PAD
    0x080005c4   0x080005c4   0x00000030   Code   RO         4389    .text               mf_w.l(cdcmple.o)
    0x080005f4   0x080005f4   0x00000030   Code   RO         4391    .text               mf_w.l(cdrcmple.o)
    0x08000624   0x08000624   0x00000038   Code   RO         4393    .text               mf_w.l(d2f.o)
    0x0800065c   0x0800065c   0x0000002c   Code   RO         4409    .text               mc_w.l(uidiv.o)
    0x08000688   0x08000688   0x00000062   Code   RO         4411    .text               mc_w.l(uldiv.o)
    0x080006ea   0x080006ea   0x0000001e   Code   RO         4413    .text               mc_w.l(llshl.o)
    0x08000708   0x08000708   0x00000024   Code   RO         4415    .text               mc_w.l(llsshr.o)
    0x0800072c   0x0800072c   0x00000000   Code   RO         4417    .text               mc_w.l(iusefp.o)
    0x0800072c   0x0800072c   0x0000006e   Code   RO         4418    .text               mf_w.l(fepilogue.o)
    0x0800079a   0x0800079a   0x000000ba   Code   RO         4420    .text               mf_w.l(depilogue.o)
    0x08000854   0x08000854   0x000000de   Code   RO         4422    .text               mf_w.l(ddiv.o)
    0x08000932   0x08000932   0x00000030   Code   RO         4424    .text               mf_w.l(dfixul.o)
    0x08000962   0x08000962   0x00000002   PAD
    0x08000964   0x08000964   0x00000024   Code   RO         4426    .text               mc_w.l(init.o)
    0x08000988   0x08000988   0x0000005a   Code   RO         3476    i.Address_set       lcd.o
    0x080009e2   0x080009e2   0x00000002   PAD
    0x080009e4   0x080009e4   0x00000088   Code   RO         3781    i.Ads1115_Init      ads1115.o
    0x08000a6c   0x08000a6c   0x00000004   Code   RO          172    i.BusFault_Handler  stm32f10x_it.o
    0x08000a70   0x08000a70   0x000000b4   Code   RO         3680    i.Coder_Init        coder.o
    0x08000b24   0x08000b24   0x00000002   Code   RO          173    i.DebugMon_Handler  stm32f10x_it.o
    0x08000b26   0x08000b26   0x00000002   PAD
    0x08000b28   0x08000b28   0x000000c0   Code   RO         3782    i.EXTI4_IRQHandler  ads1115.o
    0x08000be8   0x08000be8   0x0000000c   Code   RO         1307    i.EXTI_ClearITPendingBit  stm32f10x_exti.o
    0x08000bf4   0x08000bf4   0x00000028   Code   RO         1311    i.EXTI_GetITStatus  stm32f10x_exti.o
    0x08000c1c   0x08000c1c   0x00000094   Code   RO         1312    i.EXTI_Init         stm32f10x_exti.o
    0x08000cb0   0x08000cb0   0x0000001c   Code   RO         1377    i.FLASH_PrefetchBufferCmd  stm32f10x_flash.o
    0x08000ccc   0x08000ccc   0x00000018   Code   RO         1382    i.FLASH_SetLatency  stm32f10x_flash.o
    0x08000ce4   0x08000ce4   0x00000040   Code   RO         1657    i.GPIO_EXTILineConfig  stm32f10x_gpio.o
    0x08000d24   0x08000d24   0x00000116   Code   RO         1660    i.GPIO_Init         stm32f10x_gpio.o
    0x08000e3a   0x08000e3a   0x00000004   Code   RO         1667    i.GPIO_ResetBits    stm32f10x_gpio.o
    0x08000e3e   0x08000e3e   0x00000004   Code   RO         1668    i.GPIO_SetBits      stm32f10x_gpio.o
    0x08000e42   0x08000e42   0x00000004   Code   RO          174    i.HardFault_Handler  stm32f10x_it.o
    0x08000e46   0x08000e46   0x00000002   PAD
    0x08000e48   0x08000e48   0x0000004c   Code   RO         3999    i.IIC_Ack           myiic.o
    0x08000e94   0x08000e94   0x00000048   Code   RO         4000    i.IIC_Init          myiic.o
    0x08000edc   0x08000edc   0x0000004c   Code   RO         4001    i.IIC_NAck          myiic.o
    0x08000f28   0x08000f28   0x00000080   Code   RO         4002    i.IIC_Read_Byte     myiic.o
    0x08000fa8   0x08000fa8   0x000000b0   Code   RO         4003    i.IIC_Send_Byte     myiic.o
    0x08001058   0x08001058   0x0000004c   Code   RO         4004    i.IIC_Start         myiic.o
    0x080010a4   0x080010a4   0x00000048   Code   RO         4005    i.IIC_Stop          myiic.o
    0x080010ec   0x080010ec   0x0000002c   Code   RO         3478    i.LCD_Clear         lcd.o
    0x08001118   0x08001118   0x000000a6   Code   RO         3480    i.LCD_DrawLine_Color  lcd.o
    0x080011be   0x080011be   0x0000001c   Code   RO         3482    i.LCD_DrawPoint_Color  lcd.o
    0x080011da   0x080011da   0x00000002   PAD
    0x080011dc   0x080011dc   0x000000dc   Code   RO         3490    i.LCD_Show_Float    lcd.o
    0x080012b8   0x080012b8   0x0000007e   Code   RO         3493    i.LCD_Shows         lcd.o
    0x08001336   0x08001336   0x00000002   PAD
    0x08001338   0x08001338   0x00000024   Code   RO         3494    i.LCD_WR_DATA       lcd.o
    0x0800135c   0x0800135c   0x0000001c   Code   RO         3495    i.LCD_WR_DATA8      lcd.o
    0x08001378   0x08001378   0x0000001c   Code   RO         3496    i.LCD_WR_REG        lcd.o
    0x08001394   0x08001394   0x00000014   Code   RO         3498    i.LCD_Writ_Bus      lcd.o
    0x080013a8   0x080013a8   0x00000284   Code   RO         3499    i.Lcd_Init          lcd.o
    0x0800162c   0x0800162c   0x00000004   Code   RO          175    i.MemManage_Handler  stm32f10x_it.o
    0x08001630   0x08001630   0x00000002   Code   RO          176    i.NMI_Handler       stm32f10x_it.o
    0x08001632   0x08001632   0x00000002   PAD
    0x08001634   0x08001634   0x00000070   Code   RO          509    i.NVIC_Init         misc.o
    0x080016a4   0x080016a4   0x00000014   Code   RO          510    i.NVIC_PriorityGroupConfig  misc.o
    0x080016b8   0x080016b8   0x00000002   Code   RO          177    i.PendSV_Handler    stm32f10x_it.o
    0x080016ba   0x080016ba   0x00000002   PAD
    0x080016bc   0x080016bc   0x00000130   Code   RO         3756    i.Pid_Calculate     pid.o
    0x080017ec   0x080017ec   0x00000034   Code   RO         3757    i.Pid_Init          pid.o
    0x08001820   0x08001820   0x00000014   Code   RO         3758    i.Pid_Set           pid.o
    0x08001834   0x08001834   0x00000020   Code   RO         2076    i.RCC_APB1PeriphClockCmd  stm32f10x_rcc.o
    0x08001854   0x08001854   0x00000020   Code   RO         2077    i.RCC_APB1PeriphResetCmd  stm32f10x_rcc.o
    0x08001874   0x08001874   0x00000020   Code   RO         2078    i.RCC_APB2PeriphClockCmd  stm32f10x_rcc.o
    0x08001894   0x08001894   0x00000020   Code   RO         2079    i.RCC_APB2PeriphResetCmd  stm32f10x_rcc.o
    0x080018b4   0x080018b4   0x00000072   Code   RO            1    i.RCC_Configuration  main.o
    0x08001926   0x08001926   0x00000002   PAD
    0x08001928   0x08001928   0x0000004c   Code   RO         2085    i.RCC_DeInit        stm32f10x_rcc.o
    0x08001974   0x08001974   0x000000d4   Code   RO         2086    i.RCC_GetClocksFreq  stm32f10x_rcc.o
    0x08001a48   0x08001a48   0x0000003c   Code   RO         2087    i.RCC_GetFlagStatus  stm32f10x_rcc.o
    0x08001a84   0x08001a84   0x00000010   Code   RO         2089    i.RCC_GetSYSCLKSource  stm32f10x_rcc.o
    0x08001a94   0x08001a94   0x00000018   Code   RO         2090    i.RCC_HCLKConfig    stm32f10x_rcc.o
    0x08001aac   0x08001aac   0x0000004c   Code   RO         2091    i.RCC_HSEConfig     stm32f10x_rcc.o
    0x08001af8   0x08001af8   0x00000018   Code   RO         2097    i.RCC_PCLK1Config   stm32f10x_rcc.o
    0x08001b10   0x08001b10   0x00000018   Code   RO         2098    i.RCC_PCLK2Config   stm32f10x_rcc.o
    0x08001b28   0x08001b28   0x0000000c   Code   RO         2099    i.RCC_PLLCmd        stm32f10x_rcc.o
    0x08001b34   0x08001b34   0x0000001c   Code   RO         2100    i.RCC_PLLConfig     stm32f10x_rcc.o
    0x08001b50   0x08001b50   0x00000018   Code   RO         2103    i.RCC_SYSCLKConfig  stm32f10x_rcc.o
    0x08001b68   0x08001b68   0x00000018   Code   RO         2555    i.SPI_Cmd           stm32f10x_spi.o
    0x08001b80   0x08001b80   0x00000004   Code   RO         2567    i.SPI_I2S_SendData  stm32f10x_spi.o
    0x08001b84   0x08001b84   0x0000003c   Code   RO         2568    i.SPI_Init          stm32f10x_spi.o
    0x08001bc0   0x08001bc0   0x00000002   Code   RO          178    i.SVC_Handler       stm32f10x_it.o
    0x08001bc2   0x08001bc2   0x00000008   Code   RO          318    i.SetSysClock       system_stm32f10x.o
    0x08001bca   0x08001bca   0x00000002   PAD
    0x08001bcc   0x08001bcc   0x000000e0   Code   RO          319    i.SetSysClockTo72   system_stm32f10x.o
    0x08001cac   0x08001cac   0x0000002c   Code   RO         3783    i.Start_ADC_Differential_0_1  ads1115.o
    0x08001cd8   0x08001cd8   0x0000002c   Code   RO         3784    i.Start_ADC_Differential_2_3  ads1115.o
    0x08001d04   0x08001d04   0x00000028   Code   RO          513    i.SysTick_CLKSourceConfig  misc.o
    0x08001d2c   0x08001d2c   0x00000002   Code   RO          179    i.SysTick_Handler   stm32f10x_it.o
    0x08001d2e   0x08001d2e   0x00000002   PAD
    0x08001d30   0x08001d30   0x00000060   Code   RO          321    i.SystemInit        system_stm32f10x.o
    0x08001d90   0x08001d90   0x00000044   Code   RO         3718    i.TIM3_IRQHandler   tim.o
    0x08001dd4   0x08001dd4   0x000004d0   Code   RO         3682    i.TIM4_IRQHandler   coder.o
    0x080022a4   0x080022a4   0x00000018   Code   RO         2698    i.TIM_ARRPreloadConfig  stm32f10x_tim.o
    0x080022bc   0x080022bc   0x00000006   Code   RO         2705    i.TIM_ClearITPendingBit  stm32f10x_tim.o
    0x080022c2   0x080022c2   0x00000018   Code   RO         2710    i.TIM_Cmd           stm32f10x_tim.o
    0x080022da   0x080022da   0x0000001e   Code   RO         2712    i.TIM_CtrlPWMOutputs  stm32f10x_tim.o
    0x080022f8   0x080022f8   0x00000008   Code   RO         2728    i.TIM_GetCapture4   stm32f10x_tim.o
    0x08002300   0x08002300   0x00000022   Code   RO         2731    i.TIM_GetITStatus   stm32f10x_tim.o
    0x08002322   0x08002322   0x00000012   Code   RO         2735    i.TIM_ITConfig      stm32f10x_tim.o
    0x08002334   0x08002334   0x0000007c   Code   RO         2754    i.TIM_OC4Init       stm32f10x_tim.o
    0x080023b0   0x080023b0   0x0000001a   Code   RO         2756    i.TIM_OC4PreloadConfig  stm32f10x_tim.o
    0x080023ca   0x080023ca   0x00000014   Code   RO         2757    i.TIM_OCStructInit  stm32f10x_tim.o
    0x080023de   0x080023de   0x00000006   Code   RO         2774    i.TIM_SetCompare4   stm32f10x_tim.o
    0x080023e4   0x080023e4   0x000000a4   Code   RO         2781    i.TIM_TimeBaseInit  stm32f10x_tim.o
    0x08002488   0x08002488   0x00000012   Code   RO         2782    i.TIM_TimeBaseStructInit  stm32f10x_tim.o
    0x0800249a   0x0800249a   0x00000002   PAD
    0x0800249c   0x0800249c   0x00000128   Code   RO         3719    i.Tim_Init          tim.o
    0x080025c4   0x080025c4   0x00000044   Code   RO          446    i.USART1_IRQHandler  usart.o
    0x08002608   0x08002608   0x00000012   Code   RO         3242    i.USART_ClearFlag   stm32f10x_usart.o
    0x0800261a   0x0800261a   0x00000018   Code   RO         3246    i.USART_Cmd         stm32f10x_usart.o
    0x08002632   0x08002632   0x00000002   PAD
    0x08002634   0x08002634   0x0000009c   Code   RO         3248    i.USART_DeInit      stm32f10x_usart.o
    0x080026d0   0x080026d0   0x0000001a   Code   RO         3249    i.USART_GetFlagStatus  stm32f10x_usart.o
    0x080026ea   0x080026ea   0x00000054   Code   RO         3250    i.USART_GetITStatus  stm32f10x_usart.o
    0x0800273e   0x0800273e   0x00000002   PAD
    0x08002740   0x08002740   0x000000d8   Code   RO         3253    i.USART_Init        stm32f10x_usart.o
    0x08002818   0x08002818   0x0000000a   Code   RO         3260    i.USART_ReceiveData  stm32f10x_usart.o
    0x08002822   0x08002822   0x00000008   Code   RO         3263    i.USART_SendData    stm32f10x_usart.o
    0x0800282a   0x0800282a   0x00000004   Code   RO          180    i.UsageFault_Handler  stm32f10x_it.o
    0x0800282e   0x0800282e   0x00000002   PAD
    0x08002830   0x08002830   0x00000020   Code   RO         4339    i.__0printf         mc_w.l(printfa.o)
    0x08002850   0x08002850   0x0000000e   Code   RO         4430    i.__scatterload_copy  mc_w.l(handlers.o)
    0x0800285e   0x0800285e   0x00000002   Code   RO         4431    i.__scatterload_null  mc_w.l(handlers.o)
    0x08002860   0x08002860   0x0000000e   Code   RO         4432    i.__scatterload_zeroinit  mc_w.l(handlers.o)
    0x0800286e   0x0800286e   0x00000002   PAD
    0x08002870   0x08002870   0x00000184   Code   RO         4346    i._fp_digits        mc_w.l(printfa.o)
    0x080029f4   0x080029f4   0x000006dc   Code   RO         4347    i._printf_core      mc_w.l(printfa.o)
    0x080030d0   0x080030d0   0x00000024   Code   RO         4348    i._printf_post_padding  mc_w.l(printfa.o)
    0x080030f4   0x080030f4   0x0000002e   Code   RO         4349    i._printf_pre_padding  mc_w.l(printfa.o)
    0x08003122   0x08003122   0x00000002   PAD
    0x08003124   0x08003124   0x00000044   Code   RO          352    i.delay_init        delay.o
    0x08003168   0x08003168   0x0000004c   Code   RO          353    i.delay_ms          delay.o
    0x080031b4   0x080031b4   0x0000004c   Code   RO          354    i.delay_us          delay.o
    0x08003200   0x08003200   0x0000001c   Code   RO          449    i.fputc             usart.o
    0x0800321c   0x0800321c   0x0000000c   Code   RO         3789    i.getLastConversionResults  ads1115.o
    0x08003228   0x08003228   0x00000168   Code   RO         3500    i.lcd_show_current  lcd.o
    0x08003390   0x08003390   0x0000016c   Code   RO         3501    i.lcd_show_power    lcd.o
    0x080034fc   0x080034fc   0x00000168   Code   RO         3502    i.lcd_show_voltage  lcd.o
    0x08003664   0x08003664   0x000002a8   Code   RO         3503    i.led_show_char_imag  lcd.o
    0x0800390c   0x0800390c   0x00000a04   Code   RO            3    i.main              main.o
    0x08004310   0x08004310   0x00000048   Code   RO         3793    i.readRegister      ads1115.o
    0x08004358   0x08004358   0x0000009c   Code   RO          450    i.uart_init         usart.o
    0x080043f4   0x080043f4   0x00000028   Code   RO         3797    i.writeRegister     ads1115.o
    0x0800441c   0x0800441c   0x00008161   Data   RO         3506    .constdata          lcd.o
    0x0800c57d   0x0800c57d   0x00000003   PAD
    0x0800c580   0x0800c580   0x00000020   Data   RO         4428    Region$$Table       anon$$obj.o


    Execution Region ER_RW (Exec base: 0x20000000, Load base: 0x0800c5a0, Size: 0x000000a8, Max: 0xffffffff, ABSOLUTE)

    Exec Addr    Load Addr    Size         Type   Attr      Idx    E Section Name        Object

    0x20000000   0x0800c5a0   0x0000000e   Data   RW            6    .data               main.o
    0x2000000e   0x0800c5ae   0x00000002   PAD
    0x20000010   0x0800c5b0   0x00000014   Data   RW          322    .data               system_stm32f10x.o
    0x20000024   0x0800c5c4   0x00000004   Data   RW          355    .data               delay.o
    0x20000028   0x0800c5c8   0x00000004   Data   RW          451    .data               usart.o
    0x2000002c   0x0800c5cc   0x00000014   Data   RW         2106    .data               stm32f10x_rcc.o
    0x20000040   0x0800c5e0   0x00000017   Data   RW         3507    .data               lcd.o
    0x20000057   0x0800c5f7   0x00000001   PAD
    0x20000058   0x0800c5f8   0x0000000c   Data   RW         3683    .data               coder.o
    0x20000064   0x0800c604   0x00000004   PAD
    0x20000068   0x0800c608   0x00000038   Data   RW         3759    .data               pid.o
    0x200000a0   0x0800c640   0x00000006   Data   RW         3798    .data               ads1115.o


    Execution Region ER_ZI (Exec base: 0x200000a8, Load base: 0x0800c648, Size: 0x00001120, Max: 0xffffffff, ABSOLUTE)

    Exec Addr    Load Addr    Size         Type   Attr      Idx    E Section Name        Object

    0x200000a8        -       0x000000e0   Zero   RW            4    .bss                main.o
    0x20000188        -       0x00000c40   Zero   RW         3505    .bss                lcd.o
    0x20000dc8        -       0x00000400   Zero   RW          502    STACK               startup_stm32f10x_hd.o


==============================================================================

Image component sizes


      Code (inc. data)   RO Data    RW Data    ZI Data      Debug   Object Name

       540         42          0          6          0     228897   ads1115.o
      1412        104          0         12          0       2279   coder.o
       220         26          0          4          0     207243   delay.o
      3194        152      33121         23       3136      14065   lcd.o
      2678        198          0         14        224     243530   main.o
       172         22          0          0          0       2033   misc.o
       676         90          0          0          0       3747   myiic.o
       376         50          0         56          0       2077   pid.o
        36          8        304          0       1024        800   startup_stm32f10x_hd.o
       200         18          0          0          0       2088   stm32f10x_exti.o
        52         12          0          0          0       1089   stm32f10x_flash.o
       350          4          0          0          0       3630   stm32f10x_gpio.o
        26          0          0          0          0      54070   stm32f10x_it.o
       704        104          0         20          0      10928   stm32f10x_rcc.o
        88          0          0          0          0       2648   stm32f10x_spi.o
       502         52          0          0          0       8011   stm32f10x_tim.o
       542         28          0          0          0       6453   stm32f10x_usart.o
         0          0          0          0          0         32   sys.o
       328         28          0         20          0       2057   system_stm32f10x.o
       364         24          0          0          0       1677   tim.o
       252         20          0          4          0       3474   usart.o

    ----------------------------------------------------------------------
     12740        982      33460        168       4384     800828   Object Totals
         0          0         32          0          0          0   (incl. Generated)
        28          0          3          9          0          0   (incl. Padding)

    ----------------------------------------------------------------------

      Code (inc. data)   RO Data    RW Data    ZI Data      Debug   Library Member Name

         0          0          0          0          0          0   entry.o
         0          0          0          0          0          0   entry10a.o
         0          0          0          0          0          0   entry11a.o
         8          4          0          0          0          0   entry2.o
         4          0          0          0          0          0   entry5.o
         0          0          0          0          0          0   entry7b.o
         0          0          0          0          0          0   entry8b.o
         8          4          0          0          0          0   entry9a.o
        30          0          0          0          0          0   handlers.o
        36          8          0          0          0         68   init.o
         0          0          0          0          0          0   iusefp.o
        30          0          0          0          0         68   llshl.o
        36          0          0          0          0         68   llsshr.o
        32          0          0          0          0         68   llushr.o
      2258         90          0          0          0        452   printfa.o
        44          0          0          0          0         80   uidiv.o
        98          0          0          0          0         92   uldiv.o
        48          0          0          0          0         68   cdcmple.o
        48          0          0          0          0         68   cdrcmple.o
        56          0          0          0          0         88   d2f.o
       334          0          0          0          0        148   dadd.o
       222          0          0          0          0        100   ddiv.o
       186          0          0          0          0        176   depilogue.o
        62          0          0          0          0         80   dfixi.o
        50          0          0          0          0         76   dfixui.o
        48          0          0          0          0         68   dfixul.o
        26          0          0          0          0         76   dfltui.o
       228          0          0          0          0         96   dmul.o
        38          0          0          0          0         68   f2d.o
       176          0          0          0          0        140   fadd.o
       110          0          0          0          0        168   fepilogue.o
        50          0          0          0          0         68   ffixi.o
        18          0          0          0          0         68   fflti.o
       100          0          0          0          0         76   fmul.o

    ----------------------------------------------------------------------
      4392        106          0          0          0       2528   Library Totals
         8          0          0          0          0          0   (incl. Padding)

    ----------------------------------------------------------------------

      Code (inc. data)   RO Data    RW Data    ZI Data      Debug   Library Name

      2584        106          0          0          0        896   mc_w.l
      1800          0          0          0          0       1632   mf_w.l

    ----------------------------------------------------------------------
      4392        106          0          0          0       2528   Library Totals

    ----------------------------------------------------------------------

==============================================================================


      Code (inc. data)   RO Data    RW Data    ZI Data      Debug   

     17132       1088      33460        168       4384     796904   Grand Totals
     17132       1088      33460        168       4384     796904   ELF Image Totals
     17132       1088      33460        168          0          0   ROM Totals

==============================================================================

    Total RO  Size (Code + RO Data)                50592 (  49.41kB)
    Total RW  Size (RW Data + ZI Data)              4552 (   4.45kB)
    Total ROM Size (Code + RO Data + RW Data)      50760 (  49.57kB)

==============================================================================

